:10000000CEEF04F0120FF66E000EF7220900F55045
:10001000120000000000003E5B4F5B3E3E6B4F6BEA
:100020003E1C3E7C3E1C183C7E3C181C577D571CD9
:100030001C5E7F5E1C00183C1800FFE7C3E7FF0052
:1000400018241800FFE7DBE7FF30483A060E2629A0
:10005000792926407F050507407F05253F5A3CE763
:100060003C5A7F3E1C1C08081C1C3E7F14227F2229
:10007000145F5F005F5F06097F017F006689956AF4
:10008000606060606094A2FFA29408047E0408107F
:10009000207E201008082A1C08081C2A08081E10A8
:1000A0001010100C1E0C1E0C30383E3830060E3E60
:1000B0000E06000000000000005F000000070007BF
:1000C00000147F147F14242A7F2A122313086462E9
:1000D00036495620500008070300001C224100004A
:1000E00041221C002A1C7F1C2A08083E08080080A8
:1000F0007030000808080808000060600020100840
:1001000004023E5149453E00427F40007249494940
:10011000462141494D331814127F10274545453972
:100120003C4A494931412111090736494949364676
:100130004949291E00001400000040340000000856
:1001400014224114141414140041221408020159F9
:1001500009063E415D594E7C1211127C7F49494986
:10016000363E414141227F4141413E7F494949411B
:100170007F090909013E414151737F0808087F004A
:10018000417F41002040413F017F081422417F40D0
:100190004040407F021C027F7F0408107F3E4141A7
:1001A000413E7F090909063E4151215E7F09192917
:1001B00046264949493203017F01033F4040403F01
:1001C0001F2040201F3F4038403F63140814630342
:1001D000047804036159494D43007F4141410204C1
:1001E000081020004141417F0402010204404040C8
:1001F0004040000307080020545478407F284444BE
:10020000383844444428384444287F3854545418D7
:1002100000087E090218A4A49C787F0804047800D2
:10022000447D40002040403D007F102844000041B4
:100230007F40007C047804787C08040478384444C7
:100240004438FC1824241818242418FC7C080404BE
:1002500008485454542404043F44243C4040207C27
:100260001C2040201C3C4030403C44281028444C7A
:100270009090907C4464544C440008364100000047
:10028000770000004136080002010204023C2623E8
:10029000263C1EA1A161123A4040207A38545455A0
:1002A000592155557941225454784221555478406A
:1002B00020545579400C1E527212395555555939F2
:1002C0005454545939555454580000457C41000247
:1002D000457D420001457C407D1211127DF02825AC
:1002E00028F07C545545002054547C547C0A097FE6
:1002F0004932494949323A4444443A324A484830FA
:100300003A4141217A3A42402078009DA0A07D3DAB
:100310004242423D3D4040403D3C24FF2424487E33
:100320004943662B2FFC2F2BFF0929F620C0887E1E
:10033000090320545479410000447D413048484A23
:1003400032384040227A007A0A0A727D0D19317DD6
:100350002629292F28262929292630484D402038AA
:100360000808080808080808382F10C8ACBA2F1069
:100370002834FA00007B000008142A142222142AD0
:1003800014085500550055AA55AA55AAFF55FF5502
:10039000FF000000FF00101010FF00141414FF00F5
:1003A0001010FF00FF1010F010F0141414FC0014D3
:1003B00014F700FF0000FF00FF1414F404FC1414F1
:1003C00017101F10101F101F1414141F00101010EE
:1003D000F0000000001F101010101F10101010F07F
:1003E00010000000FF101010101010101010FF105F
:1003F000000000FF140000FF00FF00001F101700A6
:1004000000FC04F414141710171414F404F400007E
:10041000FF00F714141414141414F700F714141430
:10042000171410101F101F141414F4141010F010CF
:10043000F000001F101F0000001F14000000FC143B
:100440000000F010F01010FF10FF141414FF14102F
:1004500010101F00000000F010FFFFFFFFFFF0F082
:10046000F0F0F0FFFFFF0000000000FFFF0F0F0F94
:100470000F0F3844443844FC4A4A4A347E0202068C
:1004800006027E027E0263554941633844443C04BF
:10049000407E201E2006027E020299A5E7A5991C37
:1004A0002A492A1C4C7201724C304A4D4D3030485A
:1004B000784830BC625A463D3E494949007E0101B8
:1004C000017E2A2A2A2A2A44445F444440514A444D
:1004D0004040444A51400000FF0103E080FF00001B
:1004E00008086B6B083612362436060F090F060013
:1004F0000018180000001010003040FF0101001F1C
:1005000001011E00191D1712003C3C3C3C0000007C
:10051000000043414C4C494E473A00004E756D6215
:1005200065723D256400202020414E535745523FBF
:10053000000020594553202020202020204E4F002D
:10054000020EEA6E090EE96EEF500DE0020E016E2A
:10055000006A002EFED7012EFBD7970E006E002EEC
:10056000FED7EF2EF3D7000C800E0201116F11534E
:100570000FE0939A8A9A1051111503E093988A8894
:1005800002D093988A98939A8A8AD8901133EFD799
:100590000001000C93908A9093928A920FC210F2FD
:1005A000E3DF93928A82000C93948A94C80E02012E
:1005B000096F0001C5DF93948A84210E02010F6F39
:1005C0000001E8DF020108511009096F0F6F0001F7
:1005D000E1DF020107517F0802E27F0E076F07513A
:1005E0008009096F0F6F0001D5DF200E02010F6F28
:1005F0000001D0DF0C0E02010F6F0001CBDF85EF91
:1006000007F0020107517F0802E27F0E076F210EFB
:100610000F6F0001BFDF020107518009086F0F6FE4
:100620000001B8DF200E02010F6F0001B3DF8BEF76
:1006300007F0020114511603F3CF01F0F4CF00F0DC
:100640001703F350002615511603F3500020026ED5
:100650000001000C02010C6B0B6B0C534EE10B51B3
:1006600005084BE30B5140090D6F0CC20EF20F6FE2
:10067000000190DF0201086B076B0A6B530E096FD4
:10068000075180090D6F08C20EF20F6F000182DF63
:1006900093908A8093928A92020108510A5D27E31F
:1006A00003E10751095D23E3156B540E146F0CC26F
:1006B00017F20BC216F20001BCDF02C00EF201C03D
:1006C0000DF2020107510D2708510E230E0E0D25C4
:1006D000E96E000E0E21EA6EEFCF0DF20DC210F2A0
:1006E000000142DF0201072BD8B4082BD6D7939222
:1006F0008A820B2BD8B40C2BB0D7400E0F6F0001A1
:1007000049DF000C0201086B076B085101080FE379
:1007100003E10751F7080BE30E0E0725E96E000E03
:100720000821EA6EEF6A072BD8B4082BEED7000138
:100730009BEF07F008C20BF007C20AF00AC20DF0E7
:1007400009C20CF0000C02010F6B0E6B116B0DC295
:1007500010F20F53D8A475D00E51050872E30F5351
:1007600046E10E51040843E30D30136F0C30126F55
:1007700013331233133312331F0E131713C215F230
:1007800012C214F2176B540E166F000152DF02C032
:1007900013F201C012F20A50020112270B50132368
:1007A0000E0E1225E96E000E1321EA6E11C215F22B
:1007B00010C214F2176B050E166F00013ADF02C06B
:1007C00015F201C014F202010E5114270F51152326
:1007D00015C203F01451F2CF14F2F29E15C2F7FFC6
:1007E000000110DC020114BFF28EEF6E23D00D3039
:1007F000136F0C30126F13331233133312331F0E77
:10080000131713C215F212C214F2176B540E166F9F
:1008100000010FDF02C013F201C012F20A50020100
:1008200012270B5013230E0E1225E96E000E132112
:10083000EA6EEF6A0A2AD8B40B2A0E2BD8B40F2B13
:1008400088D70001000C0900F5520CE0F6CF07F242
:10085000F7CF08F2F5CF0DF276DF07C2F6FF08C238
:10086000F7FFF1D7000C0900F6CF08F2F7CF09F235
:10087000F5CF0DF268DF08C2F6FF09C2F7FF0201EB
:10088000072F01D002D00001EED70001C2EF07F020
:1008900002010E51016A0D5D03E20DC200F00CD0A1
:1008A000006A080E0F6F0D3700360E51005CD8B08D
:1008B000006E01360F2FF7D70001000C200E020149
:1008C00008A9300E096F07C200F007AF07D0001E5D
:1008D000002A00C007F22D0E096F088F015007C2D1
:1008E0000DF2640E0E6F0001D3DF00C007F2300E70
:1008F000012402010A6F07C20DF20A0E0E6F0001F9
:10090000C7DF300E002402010C6F300E01240B6F84
:1009100009C200F008A702D008AF089508B90BD0AB
:1009200008AF22D008B520D000C00AF208B31CD00E
:1009300000C00BF219D0300E0A5D16E100C00AF2B9
:10094000200E096F08A704D00895088308AF089304
:10095000300E0B5D09E100C00BF2200E0A6F08A7F4
:10096000F7D7089308AF089108A505D009C20DF282
:100970000001E9DE020108A305D00AC20DF2000160
:10098000E2DE020108A104D00BC20DF20001DBDEA1
:100990000CC20DF20001D7DEC9EF07F0F86AD09E55
:1009A000EA6AE96A0201066BC150C00B0F09C16E09
:1009B000070EB46E046A056A0E6A0F6A106A116A3D
:1009C000126A136A146A156A166A176A186A196A2B
:1009D0001A6A1B6A1C6A1D6A1E6A1F6A206A216ADB
:1009E000226A236A246A256A266A276A286A296A8B
:1009F0002A6A2B6A2C6A2D6A2E6A2F6A306A316A3B
:100A0000326A336A346A356A400E366E376E440E87
:100A1000386E396E3A6E840E3B6E3C6E080E3D6E3B
:100A20003E6E100E3F6E200E406EC00E416E426A4A
:100A3000436A446A400E456EA00E466E476E100E25
:100A4000486E496E080E4A6E4B6E040E4C6E4D6E2B
:100A5000020E4E6E060E4F6E080E506E300E516E28
:100A6000400E526E800E536E546A556A566A576A2B
:100A7000586A596A5A6A5B6A5C6A5D6A5E6A5F6A4A
:100A80000001606B616B626B636B646B656FE00EA2
:100A9000666FF00E676FF80E686FFC0E696F3C0EA4
:100AA0006A6F1C0E6B6F6C6F6D6F6E6F7C0E6F6F6D
:100AB000706F780E716F300E726F736B746B756B35
:100AC000766B800E776F786F796F7A6F7B6F7C6B48
:100AD0007D6B7E6B7F6F806F816F826F836B846BAA
:100AE000856F866FB00E876FF80E886F790E896FED
:100AF000310E8A6F010E8B6F020E8C6FC60E8D6FDA
:100B0000380E8E6F8F6B810E906F420E916F3C0E80
:100B1000926F936B946BC10E956F3E0E966F976BB1
:100B2000986B996B9A6B9B6B010E9C6F9D6F020E7D
:100B30009E6F240E9F6F340EA06F580EA16F880E0B
:100B4000A26F800EA36FA46BA56B020EA66F060E9C
:100B5000A76F090EA86F100EA96F200EAA6F400E86
:100B6000AB6FC00EAC6FAD6BAE6BAF6BB06BB16B00
:100B7000B26BB36BB46BB56BB66BB76BB86B0F0E78
:100B8000B96F3F0EBA6F7F0EBB6FFF0EBC6FF80ED2
:100B9000BD6FE00EBE6FC00EBF6FC06FCE0EC16FD7
:100BA000C26FEE0EC36FFE0EC46FC56FC66F7E0EB2
:100BB000C76FC86BC96BCF0ECA6FCB6F9D0ECC6F62
:100BC000CD6F990ECE6FFB0ECF6FF30ED06FD16B42
:100BD000D26BFF0ED36FD46F0F0ED56F7F0ED66F13
:100BE000F80ED76FF00ED86F7F0ED96F0F0EDA6F39
:100BF000FF0EDB6FDC6FDD6BDE6BDF6BE06BE16BE1
:100C0000E26BE36BE46BE56B040EE66F020EE76FDD
:100C1000010EE86FE96BEA6BEB6BEC6BED6BEE6B67
:100C2000EF6BF06BF16BF26BF36BF46BF56BF66BD8
:100C3000F76B090EF86F0D0EF96F160EFA6F140EA2
:100C4000FB6F200EFC6F400EFD6F430EFE6F850E96
:100C5000FF6F880E0101006F300E016F400E026FB2
:100C6000800E036F046B056B066B076B086B096BDB
:100C70000A6B0B6B0C6B0D6B0E6B0F6B106B010E1D
:100C8000116F126F136F146F156F166F176F186B4C
:100C9000196B1A6B1B6B1C6BE00E1D6F1E6FE10E48
:100CA0001F6F810E206F010E216F226F810E236F47
:100CB000E00E246F256F266F010E276F286FE00E60
:100CC000296F2A6FE10E2B6F610E2C6F600E2D6F56
:100CD0002E6F610E2F6F010E306F200E316FE00E00
:100CE000326F336FC00E346F356B366FE00E376F77
:100CF000386F200E396F3A6B3B6BE00E3C6F3D6FE7
:100D00003E6F3F6B406B800E416FC00E426FE00E36
:100D1000436F600E446F456FE00E466FC00E476F25
:100D2000800E486F496B4A6B4B6FC00E4C6FE00EE4
:100D30004D6F4E6F600E4F6FE00E506F516FC00ED3
:100D4000526F800E536F546B010E556F020E566F2B
:100D5000576F070E586F040E596F080E5A6F5B6B72
:100D60005C6B5D6B5E6B5F6B606B616B626B636B2F
:100D7000646B656B666B676B686B696B6A6B6B6BDF
:100D80006C6B6D6B6E6B6F6B706B7F0E716F726FD8
:100D9000010E736F0F0E746F7C0E756F766F0F0EF2
:100DA000776F010E786F7F0E796F7A6F7B6B7C6B3C
:100DB0007D6F7E6F7F6F660E806F816F826F836F36
:100DC000846B400E856F700E866F7D0E876F3F0EB1
:100DD000886F0F0E896F3F0E8A6F7D0E8B6F700EBE
:100DE0008C6F400E8D6F8E6B8F6B7F0E906F916F3F
:100DF000926F936B946B1F0E956F3F0E966F7F0EE5
:100E0000976F600E986F996F780E9A6F380E9B6F80
:100E1000100E9C6F9D6B9E6B1F0E9F6F3F0EA06F01
:100E20007F0EA16F700EA26F600EA36F700EA46F85
:100E30007F0EA56F3F0EA66F1F0EA76FA86BA96B45
:100E4000AA6BAB6BAC6BAD6BAE6BAF6BB06BB16BDE
:100E5000B26BB36BB46BB56BB66BB76BB86BB96B8E
:100E6000BA6BBB6BBC6BBD6BBE6BBF6BC06BC16B3E
:100E7000C26BC36BC46BC56BC66BC76BC86BC96BEE
:100E8000CA6BCB6BCC6BCD6BCE6BCF6BD06BD16B9E
:100E9000D26BD36BD46BD56BD66BD76BD86BD96B4E
:100EA000DA6BDB6BDC6BDD6BDE6BDF6BE06BE16BFE
:100EB000E26BE36BE46BE56BE66BE76BE86BE96BAE
:100EC000EA6BEB6BEC6BED6BEE6BEF6BF06BF16B5E
:100ED000F26BF36BF46BF56BF66BF76BF86BF96B0E
:100EE000FA6BFB6BFC6BFD6BFE6BFF6B0201006B27
:100EF000016B026B036B046B056B936A280E076F23
:100F0000040E086F0001D4EF02F0280E0201076FF3
:100F1000000101EF03F02AEC03F0040E0201076F59
:100F2000FA0E096F0001A0EC02F00201072FF8D7BA
:100F3000000182EF03F02AEC03F0640E0201096F56
:100F40000001A0EC02F00201086B076B0A6B096B51
:100F500000019AEC03F0120EF66E050EF76E73DCCC
:100F60000201086B076B0A6B100E096F00019AEC07
:100F700003F01C0EF66E050EF76E070E0201076FEA
:100F8000000171D406C207F21F0E0201086F0001B2
:100F900095D40201062B086B076B0A6B200E096FB4
:100FA00000019AEC03F0260EF66E050EF76E4BDC90
:100FB0000201086B076B0A6B280E096F00019AEC9F
:100FC00003F0320EF66E050EF76E3DDC2AEC03F0F0
:040FD000BAD7030089
:020000040030CA
:0E00000021C8381E000781000FC00FE00F401E
:00000001FF
;PIC18F2550
;CRC=8300  CREATED="07-Oct-15 20:04"
