:040000003AEF05F0DE
:08000800046ED8CF05F0E0CF33
:1000100006F00001E9CF0CF0EACF07F0E1CF08F0DD
:10002000E2CF09F0D9CF0AF0DACF0BF0F3CF12F01C
:10003000F4CF13F0FACF14F000C00EF001C00FF0AF
:1000400002C010F003C011F09DAA2AEF00F09EBA82
:1000500009EF03F00EC000F00FC001F010C002F075
:1000600011C003F00CC0E9FF07C0EAFF078E08C00B
:10007000E1FF09C0E2FF0AC0D9FF0BC0DAFF12C0DE
:10008000F3FF13C0F4FF14C0FAFF045006C0E0FFF2
:1000900005C0D8FF1000F2CF0DF0F29EAE0FF66E45
:1000A000000EF7220900F5500DBEF28E120000007E
:1000B0000000003E5B4F5B3E3E6B4F6B3E1C3E7C48
:1000C0003E1C183C7E3C181C577D571C1C5E7F5EF6
:1000D0001C00183C1800FFE7C3E7FF0018241800B5
:1000E000FFE7DBE7FF30483A060E2629792926404C
:1000F0007F050507407F05253F5A3CE73C5A7F3E78
:100100001C1C08081C1C3E7F14227F22145F5F0009
:100110005F5F06097F017F006689956A60606060A5
:100120006094A2FFA29408047E040810207E201090
:1001300008082A1C08081C2A08081E101010100C99
:100140001E0C1E0C30383E3830060E3E0E060000E7
:1001500000000000005F00000007000700147F148B
:100160007F14242A7F2A12231308646236495620FA
:10017000500008070300001C2241000041221C001F
:100180002A1C7F1C2A08083E0808008070300008DE
:1001900008080808000060600020100804023E51B2
:1001A00049453E00427F4000724949494621414944
:1001B0004D331814127F1027454545393C4A4949AB
:1001C0003141211109073649494936464949291E15
:1001D0000000140000004034000000081422411404
:1001E00014141414004122140802015909063E4156
:1001F0005D594E7C1211127C7F494949363E41417E
:1002000041227F4141413E7F494949417F090909D6
:10021000013E414151737F0808087F00417F410042
:100220002040413F017F081422417F404040407FF1
:10023000021C027F7F0408107F3E4141413E7F093E
:100240000909063E4151215E7F091929462649497F
:10025000493203017F01033F4040403F1F204020BF
:100260001F3F4038403F63140814630304780403BD
:100270006159494D43007F4141410204081020006B
:100280004141417F040201020440404040400003DC
:1002900007080020545478407F28444438384444A8
:1002A0004428384444287F385454541800087E09A0
:1002B0000218A4A49C787F0804047800447D4000C0
:1002C0002040403D007F1028440000417F40007CDA
:1002D000047804787C080404783844444438FC18D2
:1002E00024241818242418FC7C08040408485454B6
:1002F000542404043F44243C4040207C1C204020E3
:100300001C3C4030403C44281028444C9090907C49
:100310004464544C4400083641000000770000005B
:100320004136080002010204023C2623263C1EA19D
:10033000A161123A4040207A3854545559215555FC
:1003400079412254547842215554784020545579AB
:10035000400C1E527212395555555939545454593E
:1003600039555454580000457C410002457D4200F7
:1003700001457C407D1211127DF0282528F07C5427
:100380005545002054547C547C0A097F4932494920
:1003900049323A4444443A324A4848303A41412189
:1003A0007A3A42402078009DA0A07D3D4242423DE5
:1003B0003D4040403D3C24FF2424487E4943662B79
:1003C0002FFC2F2BFF0929F620C0887E090320541B
:1003D0005479410000447D413048484A3238404019
:1003E000227A007A0A0A727D0D19317D2629292F79
:1003F00028262929292630484D4020380808080891
:1004000008080808382F10C8ACBA2F102834FA0092
:10041000007B000008142A142222142A1408550014
:10042000550055AA55AA55AAFF55FF55FF000000D3
:10043000FF00101010FF00141414FF001010FF0034
:10044000FF1010F010F0141414FC001414F700FF47
:100450000000FF00FF1414F404FC141417101F1004
:10046000101F101F1414141F00101010F0000000B3
:10047000001F101010101F10101010F010000000BE
:10048000FF101010101010101010FF10000000FFCF
:10049000140000FF00FF00001F10170000FC04F410
:1004A00014141710171414F404F40000FF00F714C8
:1004B000141414141414F700F7141414171410104F
:1004C0001F101F141414F4141010F010F000001F6B
:1004D000101F0000001F14000000FC140000F010AA
:1004E000F01010FF10FF141414FF141010101F0050
:1004F000000000F010FFFFFFFFFFF0F0F0F0F0FF52
:10050000FFFF0000000000FFFF0F0F0F0F0F384428
:10051000443844FC4A4A4A347E02020606027E02FD
:100520007E0263554941633844443C04407E201EAA
:100530002006027E020299A5E7A5991C2A492A1CD9
:100540004C7201724C304A4D4D303048784830BCC6
:10055000625A463D3E494949007E0101017E2A2AF0
:100560002A2A2A44445F444440514A444040444A71
:1005700051400000FF0103E080FF000008086B6BA2
:10058000083612362436060F090F06000018180028
:1005900000001010003040FF0101001F01011E008B
:1005A000191D1712003C3C3C3C00000000000201F9
:1005B000896B020E886FEF0E876F340E866F110EF7
:1005C000006E002EFED7862F05D0872F03D0176A26
:1005D000016A0AD09EAAF3D7AB50176EAE50016ED7
:1005E00017A202D0AB98AB880001000CEF5210E0CC
:1005F000EACF83F2E9CF82F2EF509EA8FED7AD6E2C
:1006000083C2EAFF82C2E9FFE92AD8B4EA2AEED718
:10061000000C0201806B7F6B816B0001C8DF01C0A1
:1006200081F20201805308E17F51530805E38151B3
:100630003A0802E08153F1E181534CE01A0E7F2524
:10064000E96E020E8021EA6EEACF85F2E9CF84F2EC
:100650000001ADDF85C2EAFF84C2E9FF01C0EFFF00
:1006600002017F2BD8B4802B805320E17F515308A7
:100670001DE3010E7F5D826F000E8059836F1A0E9D
:100680008225E96E020E8321EA6EEF502C080EE0FF
:10069000010E7F5D826F000E8059836F1A0E8225D6
:1006A000E96E020E8321EA6EEF52C8E1010E7F5D12
:1006B000826F000E8059836F1A0E8225E96E020E3A
:1006C0008321EA6EEF6A020EEA6E1A0EE96E0001ED
:1006D0008DDF020193968A769E9A00012AEF00F040
:1006E00044495341424C45440000454E41424C452B
:1006F00044006275666665723A257300020EEA6E02
:10070000730EE96EEF500DE0020E016E006A002ECE
:10071000FED7012EFBD7970E006E002EFED7EF2ED0
:10072000F3D7000C800E02017B6F7B530FE0939A8E
:100730008A9A7A517B1503E093988A8802D093981D
:100740008A98939A8A8AD8907B33EFD70001000C5D
:1007500093908A9093928A9279C27AF2E3DF93928D
:100760008A82000C93948A94C80E0201736F000170
:10077000C5DF93948A84210E0201796F0001E8DFBE
:10078000020172511009736F796F0001E1DF0201FC
:1007900071517F0802E27F0E716F71518009736F92
:1007A000796F0001D5DF200E0201796F0001D0DFE3
:1007B0000C0E0201796F0001CBDF55EF08F002014A
:1007C00071517F0802E27F0E716F210E796F000177
:1007D000BFDF020171518009726F796F0001B8DFCC
:1007E000200E0201796F0001B3DF5BEF08F0020118
:1007F0007A517C03F3CF01F0F4CF00F07D03F35086
:1008000000267B517C03F3500020026E0001000C97
:100810000201766B756B76534EE1755105084BE31B
:1008200075514009776F76C278F2796F000190DFD9
:100830000201726B716B746B530E736F715180098F
:10084000776F72C278F2796F000182DF93908A80AD
:1008500093928A9202017251745D27E303E1715110
:10086000735D23E37B6B540E7A6F76C27DF275C2A3
:100870007CF20001BCDF02C078F201C077F2020115
:100880007151772772517823220E7725E96E000E79
:100890007821EA6EEFCF77F277C27AF2000142DF79
:1008A0000201712BD8B4722BD6D793928A82752B02
:1008B000D8B4762BB0D7400E796F000149DF000C19
:1008C0000201726B716B725101080FE303E1715108
:1008D000F7080BE3220E7125E96E000E7221EA6E15
:1008E000EF6A712BD8B4722BEED70001000C72C2E4
:1008F0001FF071C21EF074C221F073C220F0000C10
:100900000201756B746B776B73C276F27553D8A462
:1009100076D07451050873E3755347E174510408A8
:1009200044E32130796F2030786F7933783379332D
:1009300078331F0E791779C27BF278C27AF27D6B19
:10094000540E7C6F000153DF02C079F201C078F2CF
:100950001E50020178271F507923220E7825E96E58
:10096000000E7921EA6E77C27BF276C27AF27D6B55
:10097000050E7C6F00013BDF02C07BF201C07AF202
:10098000020174517A2775517B237BC203F07A519F
:10099000F2CF7AF2F29E7BC2F7FF00014BEC00F03F
:1009A00002017ABFF28EEF6E23D02130796F2030B2
:1009B000786F79337833793378331F0E791779C2AA
:1009C0007BF278C27AF27D6B540E7C6F00010FDFF0
:1009D00002C079F201C078F21E50020178271F5040
:1009E0007923220E7825E96E000E7921EA6EEF6AEE
:1009F0001E2AD8B41F2A742BD8B4752B87D70001B0
:100A0000000CEF520FE0EACF72F2E9CF71F2EFCFB4
:100A100073F276DF72C2EAFF71C2E9FFE92AD8B445
:100A2000EA2AEFD78CEF08F00900F5520CE0F6CF78
:100A300071F2F7CF72F2F5CF73F262DF71C2F6FF97
:100A400072C2F7FFF1D7000C0900F6CF72F2F7CFB0
:100A500073F2F5509EA8FED7AD6E72C2F6FF73C258
:100A6000F7FF0201712F01D002D00001EDD7000184
:100A7000B0EF08F0F86AD09E078EEA6AE96AB88695
:100A8000100EAF6E000EB06EA60EAC6E900EAB6E7A
:100A900002016F6B706BC150C00B0F09C16E070E66
:100AA000B46E176A186A196A226A236A246A256A68
:100AB000266A276A286A296A2A6A2B6A2C6A2D6A9A
:100AC0002E6A2F6A306A316A326A336A346A356A4A
:100AD000366A376A386A396A3A6A3B6A3C6A3D6AFA
:100AE0003E6A3F6A406A416A426A436A446A456AAA
:100AF000466A476A486A496A400E4A6E4B6E440E1F
:100B00004C6E4D6E4E6E840E4F6E506E080E516ED2
:100B1000526E100E536E200E546EC00E556E566AF5
:100B2000576A586A400E596EA00E5A6E5B6E100ED0
:100B30005C6E5D6E080E5E6E5F6E040E0001606F8F
:100B4000616F020E626F060E636F080E646F300EE7
:100B5000656F400E666F800E676F686B696B6A6BBE
:100B60006B6B6C6B6D6B6E6B6F6B706B716B726BB9
:100B7000736B746B756B766B776B786B796FE00E5C
:100B80007A6FF00E7B6FF80E7C6FFC0E7D6F3C0E63
:100B90007E6F1C0E7F6F806F816F826F7C0E836F04
:100BA000846F780E856F300E866F876B886B896BCC
:100BB0008A6B800E8B6F8C6F8D6F8E6F8F6F906BCB
:100BC000916B926B936F946F956F966F976B986B19
:100BD000996F9A6FB00E9B6FF80E9C6F790E9D6F98
:100BE000310E9E6F010E9F6F020EA06FC60EA16F99
:100BF000380EA26FA36B810EA46F420EA56F3C0E40
:100C0000A66FA76BA86BC10EA96F3E0EAA6FAB6B48
:100C1000AC6BAD6BAE6BAF6B010EB06FB16F020E14
:100C2000B26F240EB36F340EB46F580EB56F880ECA
:100C3000B66F800EB76FB86BB96B020EBA6F060E47
:100C4000BB6F090EBC6F100EBD6F200EBE6F400E45
:100C5000BF6FC00EC06FC16BC26BC36BC46BC56B83
:100C6000C66BC76BC86BC96BCA6BCB6BCC6B0F0EFB
:100C7000CD6F3F0ECE6F7F0ECF6FFF0ED06FF80E91
:100C8000D16FE00ED26FC00ED36FD46FCE0ED56F82
:100C9000D66FEE0ED76FFE0ED86FD96FDA6F7E0E5D
:100CA000DB6FDC6BDD6BCF0EDE6FDF6F9D0EE06FF9
:100CB000E16F990EE26FFB0EE36FF30EE46FE56BED
:100CC000E66BFF0EE76FE86F0F0EE96F7F0EEA6FBE
:100CD000F80EEB6FF00EEC6F7F0EED6F0F0EEE6FF8
:100CE000FF0EEF6FF06FF16BF26BF36BF46BF56B64
:100CF000F66BF76BF86BF96B040EFA6F020EFB6F75
:100D0000010EFC6FFD6BFE6BFF6B0101006B016B55
:100D1000026B036B046B056B066B076B086B096B4F
:100D20000A6B0B6B090E0C6F0D0E0D6F160E0E6F0E
:100D3000140E0F6F200E106F400E116F430E126FC6
:100D4000850E136F880E146F300E156F400E166FE0
:100D5000800E176F186B196B1A6B1B6B1C6B1D6B5E
:100D60001E6B1F6B206B216B226B236B246B010EA0
:100D7000256F266F276F286F296F2A6F2B6F2C6BBB
:100D80002D6B2E6B2F6B306BE00E316F326FE10EDF
:100D9000336F810E346F010E356F366F810E376FF2
:100DA000E00E386F396F3A6F010E3B6F3C6FE00E0B
:100DB0003D6F3E6FE10E3F6F610E406F600E416F01
:100DC000426F610E436F010E446F200E456FE00EBF
:100DD000466F476FC00E486F496B4A6FE00E4B6F0E
:100DE0004C6F200E4D6F4E6B4F6BE00E506F516F7E
:100DF000526F536B546B800E556FC00E566FE00EE2
:100E0000576F600E586F596FE00E5A6FC00E5B6FD0
:100E1000800E5C6F5D6B5E6B5F6FC00E606FE00E8F
:100E2000616F626F600E636FE00E646F656FC00E7E
:100E3000666F800E676F686B010E696F020E6A6FD6
:100E40006B6F070E6C6F040E6D6F080E6E6F6F6B1D
:100E5000706B716B726B736B746B756B766B776B9E
:100E6000786B796B7A6B7B6B7C6B7D6B7E6B7F6B4E
:100E7000806B816B826B836B846B7F0E856F866F5B
:100E8000010E876F0F0E886F7C0E896F8A6F0F0EB1
:100E90008B6F010E8C6F7F0E8D6F8E6F8F6B906BD3
:100EA000916F926F936F660E946F956F966F976FB9
:100EB000986B400E996F700E9A6F7D0E9B6F3F0E70
:100EC0009C6F0F0E9D6F3F0E9E6F7D0E9F6F700E7D
:100ED000A06F400EA16FA26BA36B7F0EA46FA56FD6
:100EE000A66FA76BA86B1F0EA96F3F0EAA6F7F0E90
:100EF000AB6F600EAC6FAD6F780EAE6F380EAF6F2C
:100F0000100EB06FB16BB26B1F0EB36F3F0EB46FAC
:100F10007F0EB56F700EB66F600EB76F700EB86F44
:100F20007F0EB96F3F0EBA6F1F0EBB6FBC6BBD6BF0
:100F3000BE6BBF6BC06BC16BC26BC36BC46BC56B4D
:100F4000C66BC76BC86BC96BCA6BCB6BCC6BCD6BFD
:100F5000CE6BCF6BD06BD16BD26BD36BD46BD56BAD
:100F6000D66BD76BD86BD96BDA6BDB6BDC6BDD6B5D
:100F7000DE6BDF6BE06BE16BE26BE36BE46BE56B0D
:100F8000E66BE76BE86BE96BEA6BEB6BEC6BED6BBD
:100F9000EE6BEF6BF06BF16BF26BF36BF46BF56B6D
:100FA000F66BF76BF86BF96BFA6BFB6BFC6BFD6B1D
:100FB000FE6BFF6B0201006B016B026B036B046B3A
:100FC000056B066B076B086B096B0A6B0B6B0C6B85
:100FD0000D6B0E6B0F6B106B116B126B136B146B35
:100FE000156B166B176B186B196B1A6B1B6B1C6BE5
:100FF0001D6B1E6B1F6B206B216B226B236B246B95
:10100000256B266B276B286B296B2A6B2B6B2C6B44
:101010002D6B2E6B2F6B306B316B326B336B346BF4
:10102000356B366B376B386B396B3A6B3B6B3C6BA4
:101030003D6B3E6B3F6B406B416B426B436B446B54
:10104000456B466B476B486B496B4A6B4B6B4C6B04
:101050004D6B4E6B4F6B506B516B526B536B546BB4
:10106000556B566B576B586B596B5A6B5B6B5C6B64
:101070005D6B5E6B5F6B606B616B626B636B646B14
:10108000656B666B676B686B696B6A6B6B6B6C6BC4
:101090006D6B6E6B720ED36ED350936A280E716FA8
:1010A000040E726F0001B2EF03F0280E0201716F9F
:1010B0000001DFEF03F008EC04F0020E0201716F93
:1010C000960E736F00017EEC03F00201712FF8D7CA
:1010D000000160EC04F008EC04F0140E0201716FE2
:1010E000FA0E736F00017EEC03F00201712FF8D746
:1010F000100E946E94908B90000160EC04F002014D
:10110000726B716B746B736B000177EC04F0020E01
:10111000EA6E1A0EE96E75D40201726B716B746B14
:10112000080E736F000177EC04F002016F5307E1C2
:10113000E00EF66E060EF76E000176DC02016F2DF2
:1011400007D0EA0EF66E060EF76E00016DDC0201A6
:10115000F20EF66E060EF76E070E716F000174D474
:10116000020EEA6E1A0EE96E166AF2BE168EF29E34
:10117000F6EC02F016BEF28E9D9AF29CF29EF2BE42
:10118000FDD708EC04F09D8AC00EF212040E020195
:10119000716FFA0E736F00017EEC03F00201712F84
:1011A000F8D76F2D18D094908B80080E716FFA0EBF
:1011B000736F00017EEC03F00201712FF8D76F6BA3
:1011C00094908B90726B716B746B080E736F00014F
:1011D00077EC04F00201706B7051140824E3036A89
:1011E00070511A0FE96E020E0320EA6EEF503108BB
:1011F00018E1010E7025036A1A0FE96E020E032032
:10120000EA6EEF5036080DE1020E7025036A1A0FE0
:10121000E96E020E0320EA6EEF50350802E1010E7E
:0A1220006F6F702BD9D768D7030059
:020000040030CA
:0E00000020C8381E000781000FC00FE00F401F
:00000001FF
;PIC18F2550
;CRC=FC06  CREATED="12-Oct-15 17:28"
